:100000000C944B010C9473010C9473010C94BC0977
:100010000C948F090C9462090C9473010C947F0466
:100020000C9473010C9473010C9473010C94730180
:100030000C9473010C9473010C9473010C94730170
:100040000C94A4030C9473010C9473010C9473012D
:100050000C9473010C9473010C9473010C94730150
:100060000C9473010C9473015210551058105B10CE
:100070005E1061106410DF10EA10061122113E11AB
:10008000601182118F1152127912CA126A138F13E2
:100090007414C014881465686D6572002843294A79
:1000A0002E426F2D00302E31610056657273696FDC
:1000B0006E3A006F6C6C6572004654436F6E7472DA
:1000C0002D00507265737342544E004641494C53A3
:1000D00041464500456D2E48616C742000000101C9
:1000E00002020203040607090B0E12161C232B360C
:1000F00043546983A4CCFF00000204070A0F141ABA
:100100002129313B45505C68768493A3B4C6D8EB73
:10011000FF0036566D7E8C98A3ACB4BCC2C9CFD458
:10012000D9DEE2E6EAEEF2F5F9FCFF003348586664
:10013000727D879099A1A9B1B8BFC6CCD2D8DEE4B0
:10014000E9EFF5FAFF554E4B4E4F574E0053717283
:1001500074004C6F6700537175617265004578706B
:10016000004C696E656172004469676974616C0076
:100170004E6F6E65004D4F44453A00554E4B4E4F05
:10018000574E0054656D702E00436F756E74657226
:100190000052504D004F75742056616C7300496ECB
:1001A0002056616C7300566F6C7461676573004410
:1001B0004953504C41593A00556E6B6E6F776E0043
:1001C00065686D6572002843294A2E426F2D0056DE
:1001D000455253494F4E3A00432E444956494445EF
:1001E0003A00432E4D554C54493A00492E4445425D
:1001F0004E433A00432E554E49543A00454D2E4841
:10020000414C543A004D454E5500434F4E464947E8
:10021000004552524F5200436F756E7465723A003A
:100220006D4100493A005600553A00560035563A9D
:10023000005600494E3A0000000000230026002925
:100240000000000008000201000003040700000095
:10025000000000000000000000240027002A000128
:10026000020408102040800102040810200102044A
:1002700008102000000000250028002B00040404C2
:10028000040404040402020202020203030303033F
:1002900003008B158A1511241FBECFEFD8E0DEBFF7
:1002A000CDBF11E0A0E0B1E0E4E5F4E302C00590C9
:1002B0000D92A636B107D9F723E0A6E6B1E001C05A
:1002C0001D92A531B207E1F711E0CAE4D1E004C004
:1002D0002197FE010E94CA18C934D107C9F70E94AC
:1002E000AF0C0C941D1A0C940000CF92DF92EF9289
:1002F000FF920F931F93CF93DF936C017A018B01D1
:10030000C0E0D0E0CE15DF0589F0D8016D918D01F8
:10031000D601ED91FC910190F081E02DC601099587
:10032000892B11F47E0102C02196ECCFC701DF9129
:10033000CF911F910F91FF90EF90DF90CF90089594
:100340003FB7F8948091400290914102A0914202FF
:10035000B091430226B5A89B05C02F3F19F0019626
:10036000A11DB11D3FBFBA2FA92F982F8827820F3B
:10037000911DA11DB11DBC01CD0142E0660F771F8B
:10038000881F991F4A95D1F70895DC015896ED9181
:10039000FC915997309719F0CB01BA01099408954F
:1003A000DC015696ED91FC915797309709F009942E
:1003B0000895DC015496ED91FC915597309709F022
:1003C00009940895089508950895FF920F931F9337
:1003D000CF93DF93EC018091FF01FF802D819091FD
:1003E000FF014E813091FF01309534232923932F53
:1003F000922B8F25F92EF8228091FF018F8308859B
:10040000198501151105E1F0D80113968C919F2DE6
:10041000982381F09091FF01892391E009F490E005
:100420009093FE01F80184818093FD010190F08199
:10043000E02D0995D80115960D911C911697E1CFE5
:100440009BB38C81982349F09BB3892B8BBBE881AC
:10045000F98180818093FF01BECFDF91CF911F9101
:100460000F91FF9008950E94181A0C948019833000
:1004700081F028F4813099F08230A1F0089587301E
:10048000A9F08830B9F08430D1F4809180008F7D5C
:1004900003C0809180008F7780938000089584B599
:1004A0008F7702C084B58F7D84BD08958091B000A0
:1004B0008F7703C08091B0008F7D8093B000089546
:1004C0001F93CF93DF93282F30E0F901EF5BFD4FAF
:1004D0008491F901E15AFD4FD491F901E358FD4FA0
:1004E000C491CC23C9F0162F81110E943702EC2F42
:1004F000F0E0EE0FFF1FED58FD4FA591B4918FB7BF
:10050000F894111105C09C91ED2FE095E92302C0EC
:10051000EC91ED2BEC938FBFDF91CF911F9108955C
:10052000CF93DF93EC0160E08E810E94600261E076
:100530008E810E94600260E08E810E9460028BE8E2
:1005400091E00197F1F7DF91CF910895CF93DF9379
:1005500090E0FC01E15AFD4F2491FC01E358FD4F6E
:100560008491882361F190E0880F991FFC01EB5A78
:10057000FD4FC591D491FC01ED58FD4FA591B4916B
:10058000611109C09FB7F8948881209582238883E0
:10059000EC912E230BC0623061F49FB7F894388140
:1005A000822F809583238883EC912E2B2C939FBFE1
:1005B00006C08FB7F894E8812E2B28838FBFDF9178
:1005C000CF9108958E3008F08E50877020910101F0
:1005D00090E4299F90011124822B80937C008091CC
:1005E0007A00806480937A0080917A0086FDFCCF47
:1005F000809178002091790090E0922B08958F925D
:100600009F92AF92BF92CF92DF92EF92FF926B01D7
:100610007C010E94A0014B015C01C114D104E104E2
:10062000F104F1F00E94A001DC01CB0188199909C5
:10063000AA09BB09883E9340A105B10570F321E0EA
:10064000C21AD108E108F10888EE880E83E0981EEE
:10065000A11CB11CC114D104E104F10419F7DDCFD0
:10066000FF90EF90DF90CF90BF90AF909F908F90D2
:1006700008952FB7F89460913C0270913D028091EB
:100680003E0290913F022FBF08950F931F938091D8
:100690009D0182FF43C08091080281110DC00E941C
:1006A00039036093040270930502809306029093CD
:1006B000070281E0809308020E943903009104023E
:1006C000109105022091060230910702DC01CB0156
:1006D000801B910BA20BB30B4097A105B10588F1CC
:1006E0008091990190919A01A0919B01B0919C01F8
:1006F0000196A11DB11D8093990190939A01A09339
:100700009B01B0939C010E94390360930402709393
:100710000502809306029093070213C0809199010D
:1007200090919A01A0919B01B0919C010196A11D0D
:10073000B11D8093990190939A01A0939B01B0936E
:100740009C011F910F9108951F920F920FB60F9267
:1007500011242F933F938F939F93AF93BF938091D7
:100760003C0290913D02A0913E02B0913F02309137
:100770003B0223E0230F2D3720F40196A11DB11D6C
:1007800005C026E8230F0296A11DB11D20933B0250
:1007900080933C0290933D02A0933E02B0933F02AF
:1007A0008091400290914102A0914202B091430297
:1007B0000196A11DB11D8093400290934102A09328
:1007C0004202B0934302BF91AF919F918F913F91AD
:1007D0002F910F900FBE0F901F901895CF92DF9220
:1007E000EF92FF920F931F93CF93DF937C016C01E5
:1007F00087E0C80ED11CC0E0D0E0062F10E0B801A1
:100800000C2E02C0759567950A94E2F76170F601A7
:1008100081916F010E9460022196C430D10579F761
:10082000C701DF91CF911F910F91FF90EF90DF9063
:10083000CF900C949002CF92DF92EF92FF920F93A1
:100840001F93CF93DF93EC01F62E642F8C810E94CF
:1008500060028D818F3F19F060E00E9460028F85F9
:100860000F2D10E084FF25C06E0187E0C80ED11C5B
:10087000E12CF12CB8010E2C02C0759567950A94F5
:10088000E2F76170F60181916F010E946002FFEF53
:10089000EF1AFF0A88E0E816F10461F7CE01DF9154
:1008A000CF911F910F91FF90EF90DF90CF900C941C
:1008B0009002B80184E0759567958A95E1F7CE01BD
:1008C0000E94EE036F2DCE01DF91CF911F910F910A
:1008D000FF90EF90DF90CF900C94EE0341E00E94E8
:1008E0001B0481E090E0089540E00C941B0461E05B
:1008F0000E9474048BE39FE10197F1F708951F9222
:100900000F920FB60F9211240F931F932F933F93C3
:100910004F935F936F937F938F939F93AF93BF9307
:10092000CF93DF93EF93FF93809105018F5F8093C7
:100930000501882329F0EDE5F2E020E030E059C020
:100940000DE512E0E3E6F2E0C5E6D2E0CE01019764
:10095000DC014C91CF010197DC01411103C02881DA
:100960002223F9F02C9130E0808190E0B901681BDE
:10097000790B1616170644F4442389F0840F911D51
:100980008217930764F40AC0672B49F04881442317
:1009900031F0841B9109281739070CF49C0120833E
:1009A00002C08C91808380818823C9F0CF01059794
:1009B000DC018C91AF0142505109D80112962D9162
:1009C0003C911397D9019C91DA01811103C08C915C
:1009D000892B03C08C9180958923D9018C93075F63
:1009E0001F4F39962996B3E001311B0709F0AECFAE
:1009F000A2CF808187FD15C0E901C35ADD4F8091E8
:100A000005019E8198130DC09981A281B3818C81CB
:100A1000911104C09C918095892302C09C91892BDF
:100A20008C933996275F3F4F243B310511F7FF9197
:100A3000EF91DF91CF91BF91AF919F918F917F9176
:100A40006F915F914F913F912F911F910F910F9057
:100A50000FBE0F901F9018950F931F938091330234
:100A600081110DC00E94390360932F0270933002F0
:100A7000809331029093320281E08093330280911F
:100A8000A6019091A7018D3221E09207D4F00E9437
:100A9000390300912F0210913002209131023091E0
:100AA0003202DC01CB01801B910BA20BB30BC3976D
:100AB000A105B10520F080912E028F3F51F58FEFF7
:100AC0001CC0843D9E4FE4F40E94390300912F0224
:100AD000109130022091310230913202DC01CB01C1
:100AE000801B910BA20BB30BC397A105B10520F09E
:100AF00080912E02813089F481E080932E0202C021
:100B000010922E0280912D02882359F010922D020E
:100B100008C08FEF80932D02D2CF81E080932D0209
:100B2000EBCF1F910F9108950F931F938091250292
:100B300081110DC00E94390360932102709322023B
:100B4000809323029093240281E080932502809178
:100B5000A4019091A5018D3221E09207D4F00E946A
:100B60003903009121021091220220912302309139
:100B70002402DC01CB01801B910BA20BB30BC397AA
:100B8000A105B10520F0809120028F3F51F58FEF34
:100B90001CC0843D9E4FE4F40E9439030091210261
:100BA000109122022091230230912402DC01CB011A
:100BB000801B910BA20BB30BC397A105B10520F0CD
:100BC00080912002813089F481E08093200202C06C
:100BD0001092200280911F02882359F010921F0268
:100BE00008C08FEF80931F02D2CF81E080931F0255
:100BF000EBCF1F910F9108950F931F9380911702D0
:100C000081110DC00E943903609313027093140286
:100C1000809315029093160281E0809317028091D1
:100C2000A0019091A1018D3221E09207D4F00E94A1
:100C30003903009113021091140220911502309192
:100C40001602DC01CB01801B910BA20BB30BC397E7
:100C5000A105B10520F0809112028F3F51F58FEF71
:100C60001CC0843D9E4FE4F40E943903009113029E
:100C7000109114022091150230911602DC01CB0173
:100C8000801B910BA20BB30BC397A105B10520F0FC
:100C900080911202813089F481E08093120202C0B7
:100CA0001092120280911102882359F010921102C1
:100CB00008C08FEF80931102D2CF81E080931102A0
:100CC000EBCF1F910F91089560E089E00E94060A22
:100CD00060E08AE00E94060A60E085E00E94060A61
:100CE00060E086E00E94060A60E080E10E94060A59
:100CF00060E081E10E94060A60E083E00E94060A4B
:100D000060E084E00C94060A0F931F93CF93DF9367
:100D10001F92CDB7DEB78091C4018111A5C080912B
:100D2000C301882309F46BC01092C30160910401D0
:100D300080E090E069830E9409166981681721F0BC
:100D400080E090E00E9411166091030181E090E044
:100D500069830E9409166981681721F081E090E09B
:100D60000E94111660919D01617082E090E069839C
:100D70000E9409166981681721F082E090E00E94C4
:100D8000111660919D016695617083E090E0698322
:100D90000E9409166981681721F083E090E00E94A3
:100DA000111660919D0162FB662760F984E090E076
:100DB00069830E9409166981681721F084E090E038
:100DC0000E94111660919E0185E090E069830E9467
:100DD00009166981681721F085E090E00E941116DC
:100DE00060919F0186E090E069830E940916698105
:100DF000681751F086E090E00E94111605C081E06E
:100E00008093C3010E9464060E943903009100028E
:100E1000109101022091020230910302DC01CB010A
:100E2000801B910BA20BB30B8C329140A105B10535
:100E300008F044C080910301853049F41092990173
:100E400010929A0110929B0110929C010AC080910D
:100E5000A801811104C081E08093A80102C0109212
:100E6000A8011092C3012AC08091A0019091A10114
:100E7000855D9E4F87359240D8F48091A201909174
:100E8000A301855D9E4F8735924090F48091A40127
:100E90009091A501855D9E4F8735924048F48091E1
:100EA000A6019091A701855D9E4F8735924020F065
:100EB0008091A801813011F41092C4010E9439037D
:100EC00060930002709301028093020290930302E8
:100ED0000F90DF91CF911F910F9108950F931F9362
:100EE000CF93DF93EC018B0101978133910508F4D7
:100EF00051C0C296C19708F44DC01C161D06A4F43B
:100F0000CE010D2E000CAA0BBB0B9C01AD01225390
:100F1000310941095109ACE2B1E00E943E1626EDCB
:100F200031E040E050E015C02097B9F0CE010D2E21
:100F3000000CAA0BBB0B9C01AD012E5C3F4F4F4F29
:100F40005F4FACE2B1E00E943E162AE23EEF4FEF67
:100F50005FEF0E941F16E22F232F8E2F922F8F3FBD
:100F6000910519F014F08FEF90E06AE070E00E94B4
:100F7000B618FB01FF27E00FF11F1C161D0624F415
:100F8000E4918E2F90E008C0849190E09195819536
:100F9000910902C080E090E0DF91CF911F910F9105
:100FA00008958EE480937C0065E070E080E090E03E
:100FB0000E94FF0280917A00806480937A00809181
:100FC0007A0086FDFCCF809178002091790030E096
:100FD000322F2227A901330F660B770B9A01AB0141
:100FE000282B60E070E381E190E00E941F16C901A8
:100FF0000895CF92DF92EF92FF920F931F93CF93BA
:10100000DF9300D000D0CDB7DEB760E083E10E946F
:10101000A60260E083E10E94A60283E080930101C2
:1010200083E10E94E20268E070E080E090E00E94CC
:10103000FF0283E10E94E2026C01092E000CEE081F
:10104000FF082FEFC21623E0D206E104F10469F491
:101050000E94D1078C0183E10E94E2029801DC0129
:101060000E94D018A701960109C02CE434E0DC01ED
:101070000E94D0182FEF33E040E050E00E941F168E
:10108000A9E2B4E00E943E1624E630E040E050E0E1
:101090000E941F1681E08093010161E083E12983B2
:1010A0003A834B835C830E94A60229813A814B815B
:1010B0005C81DA01C9018A569F4FAF4FBF4F0F9035
:1010C0000F900F900F90DF91CF911F910F91FF9094
:1010D000EF90DF90CF9008951F93CF93DF93EB01B4
:1010E000813059F038F0823059F0833059F414E0EF
:1010F00093E008C01AE099E005C016E095E002C050
:1011000011E190E11C161D064CF4BE01CF3FD10544
:1011100019F014F06FEF70E0892F0FC060E0892F95
:10112000209759F00E94060AC1308FEFD80714F4B7
:10113000C1E0DFEF6C2F619503C00E94060A60E0FA
:10114000812FDF91CF911F910C94060A1F93CF93AB
:10115000DF93813059F038F0823059F0833059F400
:10116000C4E0D3E008C0CAE0D9E005C0C6E0D5E0DD
:1011700002C0C1E1D0E163337105F4F0CB01770F18
:10118000AA0BBB0B9C01AD01225331094109510946
:10119000ACE2B1E00E943E1626ED31E040E050E0C6
:1011A0000E941F162F3F31054105510509F014F427
:1011B000622F2AC06FEF28C06E3C8FEF78071CF5B6
:1011C000CB01770FAA0BBB0B9C01AD012E5C3F4FEF
:1011D0004F4F5F4FACE2B1E00E943E162AE23EEF75
:1011E0004FEF5FEF0E941F162F3F3105410551055C
:1011F00009F014F4122F01C01FEF60E08D2F0E9440
:10120000060A612F05C060E08D2F0E94060A60E08B
:101210008C2FDF91CF911F910C94060ACF93DF930F
:10122000C82F813041F068F0823041F0833059F4AA
:10123000D4E093E008C0D6E095E005C0D1E190E1AC
:1012400002C0DAE099E0613041F06230E9F460E038
:10125000892F0E94060A6FEF05C06FEF892F0E9449
:10126000060A60E08D2F0E94060A81E090E0A0E06F
:10127000B0E004C0880F991FAA1FBB1FCA95D2F700
:1012800020911002822B17C060E0892F0E94060A6D
:1012900060E08D2F0E94060A81E090E0A0E0B0E0BF
:1012A00004C0880F991FAA1FBB1FCA95D2F780954B
:1012B00090911002892380931002DF91CF910895BD
:1012C0000C9409161F920F920FB60F9211242F93B0
:1012D0003F934F935F936F937F938F939F93AF93BE
:1012E000BF93EF93FF93E0916601F09167018081D6
:1012F0008093FF0186E691E00E94E501FF91EF9166
:10130000BF91AF919F918F917F916F915F914F911D
:101310003F912F910F900FBE0F901F9018951F9225
:101320000F920FB60F9211242F933F934F935F9319
:101330006F937F938F939F93AF93BF93EF93FF939D
:10134000E0917701F091780180818093FF0187E738
:1013500091E00E94E501FF91EF91BF91AF919F91C4
:101360008F917F916F915F914F913F912F910F904E
:101370000FBE0F901F9018951F920F920FB60F92ED
:1013800011242F933F934F935F936F937F938F938A
:101390009F93AF93BF93EF93FF93E0918801F091F8
:1013A000890180818093FF0188E891E00E94E50136
:1013B000FF91EF91BF91AF919F918F917F916F912D
:1013C0005F914F913F912F910F900FBE0F901F9003
:1013D0001895E0914402F09145020190F081E02DD2
:1013E000682F84E492E00994009769F0FC01019071
:1013F0000020E9F73197AF01481B590BBC0184E489
:1014000092E00C94750180E090E00895CF93EDE5B3
:10141000F2E0AFEF90E0208187FF03C027FF06C016
:101420004BC0281719F0AF3F41F404C0658387FD16
:10143000FACF46C0208127FDA92F9F5F39969431AE
:1014400051F787FD3DC0AF3F09F43AC0C82F89E08E
:10145000A802D0011124A35ABD4FCC9320915C0265
:1014600011962C9311978C2F0C2E000C990BFC01CC
:10147000E358FD4FE491F0E0EE0FFF1FED58FD4FF4
:101480004591549113965C934E931297FC01E15A47
:10149000FD4FE4911496EC93149715966C932111DB
:1014A00002C060E001C061E08C2F0E94600261E038
:1014B0008C2FCF910C94A602AF3F09F0BECFBCCFCA
:1014C000CF9108950F931F93CF93DF938C01C0E0CA
:1014D000D0E0F801EC0FFD1F6491662371F0E091FC
:1014E0004402F09145020190F081E02D84E492E005
:1014F0000995892B11F02196ECCFCE01DF91CF9188
:101500001F910F910895643008F063E090915702A5
:10151000691710F06FEF690FE62FF0E0EC5BFD4FFD
:101520009489682F690F606884E492E00C947404D5
:10153000CF93DF93DC01FB01428385E493E0918349
:1015400080831296CD91DC91139798818381892BAA
:10155000888382818D7F813041F415969C91159707
:101560008381892B15968C931597828181508230C7
:1015700040F416969C9116978381892B16968C932E
:1015800016979091680014968C91892B809368002F
:10159000DF91CF9108958F929F92AF92BF920F9358
:1015A0001F93CF93DF93CDB7DEB7A1970FB6F89413
:1015B000DEBF0FBECDBF19A2423008F44AE08E0153
:1015C0000F5D1F4F842E912CA12CB12CA5019401ED
:1015D0000E944916E62FB901CA0101501109EA30EB
:1015E00014F4E05D01C0E95CD801EC93232B242BBB
:1015F000252B61F7C8010E94F409A1960FB6F89453
:10160000DEBF0FBECDBFDF91CF911F910F91BF9075
:10161000AF909F908F900895CF92DF92EF92FF92BC
:10162000CF93DF936C01990FEE08FF08F7FE17C008
:101630008DE20E94E909EC0166277727CB016C193E
:101640007D098E099F094AE00E94CB0A8C0F9D1FDD
:10165000DF91CF91FF90EF90DF90CF9008954AE017
:10166000C701B601DF91CF91FF90EF90DF90CF904F
:101670000C94CB0A4F925F926F927F928F929F92BF
:10168000AF92BF92CF92DF92EF92FF926B017C01FB
:10169000B42E9B01AC010E94B118882319F08AE591
:1016A00091E027C026013701E89477F82FEF3FEF4C
:1016B0004FE75FE7C301B2010E94B11881110DC06D
:1016C0002FEF3FEF4FE75FE7C301B2010E94E7163C
:1016D00018161CF48EE591E00CC02FEF3FEF4FE79A
:1016E0005FE4C701B6010E943F18181684F482E631
:1016F00091E0FF90EF90DF90CF90BF90AF909F90E0
:101700008F907F906F905F904F900C94F4092FEF23
:101710003FEF4FE75FECC701B6010E94E71687FD78
:10172000E6CF20E030E0A901C701B6010E94E7162C
:1017300087FF09C08DE20E94E9094C01F7FAF09495
:10174000F7F8F09402C0812C912CA12C60E070E09D
:1017500080E09FE3AB1441F020E030E040E251E450
:101760000E94EC16A394F6CF9B01AC01C701B60111
:101770000E947B162B013C010E945E176B017C01CD
:101780000E948D179B01AC01C301B2010E947A1621
:101790002B013C014AE0C701B6010E94CB0A7C0143
:1017A000E80CF91CBB2029F08EE20E94E909E80E42
:1017B000F91EDB2CDD2021F120E030E040E251E495
:1017C000C301B2010E9444182B013C010E945E1724
:1017D0004B01A12CB12C4AE0C501B4010E94CB0AF7
:1017E000E80EF91EC501B4010E948D179B01AC01E2
:1017F000C301B2010E947A162B013C01DA94DACFC0
:10180000C701FF90EF90DF90CF90BF90AF909F9077
:101810008F907F906F905F904F9008950C94F40993
:10182000EF92FF920F931F93CF93DF93EC0142301F
:1018300018F08F8588608F874B8B1C8A80E48D8B96
:101840006E8B70E0605C7F4F6F8B61E08C810E94DB
:10185000A6028D818F3F19F061E00E94A60261E02F
:101860008E810E94A6027E0187E0E80EF11C00E056
:1018700010E08F8584FD03C084E090E002C088E022
:1018800090E0081719074CF461E0F70181917F019E
:101890000E94A6020F5F1F4FECCF8BE39DE00197E4
:1018A000F1F760E08C810E94600260E08E810E940E
:1018B00060028D818F3F19F060E00E9460026F85A9
:1018C00064FD1DC063E0CE010E94EE030BE416E44C
:1018D000C8010197F1F763E0CE010E94EE03C80151
:1018E0000197F1F763E0CE010E94EE0383E592E0F9
:1018F0000197F1F762E0CE010E94EE0316C060622C
:10190000CE010E9474048BE496E40197F1F76F8591
:101910006062CE010E94740483E592E00197F1F7C2
:101920006F856062CE010E9474046F856062CE0193
:101930000E94740484E0888B6CE0CE010E947404E1
:10194000CE010E94770482E0898B66E0CE01DF91B0
:10195000CF911F910F91FF90EF900C9474047894A5
:1019600084B5826084BD84B5816084BD85B58260A4
:1019700085BD85B5816085BD80916E008160809355
:101980006E001092810080918100826080938100BE
:1019900080918100816080938100809180008160CE
:1019A000809380008091B10084608093B100809129
:1019B000B00081608093B00080917A008460809351
:1019C0007A0080917A00826080937A0080917A0018
:1019D000816080937A0080917A00806880937A0099
:1019E0001092C10061E089E00E94A60261E08AE0F5
:1019F0000E94A60261E080E10E94A60261E081E10E
:101A00000E94A60261E085E00E94A60261E086E0F5
:101A10000E94A60261E083E00E94A60261E084E0E9
:101A20000E94A60281E087BB82E08093B100809390
:101A3000B00092E89093B30080937000EDE5F2E07F
:101A400080E090E02FEF2083DC01A35ABD4F119678
:101A50001C9211971382128217961C921797189650
:101A60001C9239960996843B910569F710925C02A5
:101A700062E087E00E94A60211E01093010142E0BB
:101A800068E084E492E00E94100C80919D018E7FBA
:101A900080939D0189EB90E00E94620A61E080E002
:101AA0000E94830A83EB90E00E94620A6EEE72E06D
:101AB00080E090E00E94FF0284E492E00E947704BC
:101AC0008AEA90E00E94620A61E080E00E94830A54
:101AD00085EA90E00E94620A6EEE72E080E090E09B
:101AE0000E94FF0284E492E00E9477048CE990E077
:101AF0000E94620A61E080E00E94830A86E990E029
:101B00000E94620A6EEE72E080E090E00E94FF02A6
:101B100084E492E00E94770480E090E00E946009F3
:101B2000873018F01093040102C08093040181E013
:101B300090E00E946009883008F082E08093030101
:101B400082E090E00E94600990919D01823010F047
:101B50009E7F02C080FB90F990939D0183E090E00E
:101B60000E94600990919D01823010F09D7F02C01B
:101B700080FB91F990939D0184E090E00E946009C0
:101B800090919D01823010F09B7F02C080FB92F902
:101B900090939D0185E090E00E9460098F3F19F4C9
:101BA00010929E0102C080939E0186E090E00E9408
:101BB00060098F3F19F410929F0102C080939F012A
:101BC000E4E8F2E0E491EE2309F44CC0F0E032974F
:101BD000E330F10538F4EE0FFF1FE45FFE4FA08104
:101BE000B18102C0A0E0B0E0ED91FC91119780813D
:101BF00017968C93179718968D919C91199700972B
:101C000071F0EC012C81273019F442E0BE0127C0AD
:101C10002D813E812115310511F0E901F3CFBD0180
:101C2000665F7F4FF9F027E01E962C931E9722E007
:101C30001C962C931C9750961C921E921F97E6E6BA
:101C4000F2E0E4911D96EC931D97892B29F41996E7
:101C50007C936E93189702C07E836D8342E0CD0122
:101C60000E94980A84E896E09093BE018093BD019B
:101C700084EE91E09093C0018093BF0183EE91E0E8
:101C80009093C2018093C10182E08093AB0184E113
:101C900090E0A0E0B0E08093AC019093AD01A09300
:101CA000AE01B093AF0182E090E09093B1018093D8
:101CB000B00162E00E94A60281E08093B201C1E01F
:101CC0009CE0292E312C412C512C13E00FEF8091F8
:101CD0009D0180FF07C080910301853019F04F9B63
:101CE000C093C401D091C401DD23E1F00E946406D9
:101CF00062E084E492E00E9474048BE39FE1019728
:101D0000F1F7D13019F484ED90E002C08BEC90E053
:101D10000E94620A61E080E00E94830A82EC90E007
:101D20000E94620AF090A801F11020C08FE00E948A
:101D3000E20292509093A1018093A0018EE00E9454
:101D4000E20292509093A3018093A20185E10E9448
:101D5000E20292509093A5018093A40184E10E9435
:101D6000E20292509093A7018093A6018091C40152
:101D7000811110C6D091C301D11140C180910401DD
:101D8000833009F4A3C018F5813009F452C08230C1
:101D900009F034C16091A0017091A10180E00E941E
:101DA000A6086091A2017091A30181E00E94A6089B
:101DB0006091A4017091A50182E00E94A608609143
:101DC000A6017091A70183E00E94A60817C1853083
:101DD00009F4D0C008F4A4C0863009F00FC16BE24A
:101DE00071E08091A0019091A1010E946E073C01D9
:101DF0009093E4018093E3016BE271E08091A20192
:101E00009091A3010E946E074C019093E60180938C
:101E1000E5016BE271E08091A4019091A5010E941F
:101E20006E075C019093E8018093E7016BE271E03B
:101E3000CAC08091A0019091A101843D2EEF92072C
:101E400014F461E006C08D32914014F062E001C0EC
:101E500060E080E00E940E098091A2019091A301B0
:101E6000843D2EEF920714F461E006C08D3291405C
:101E700014F062E001C060E081E00E940E098091F0
:101E8000A4019091A501843D2EEF920714F461E026
:101E900006C08D32914014F062E001C060E082E043
:101EA0000E940E098091A6019091A701843D2EEF1A
:101EB000920714F461E006C08D32914014F062E0A4
:101EC00001C060E083E00E940E0998C06DED70E0F3
:101ED0008091A0019091A1010E946E073C01909316
:101EE000E4018093E3016DED70E08091A201909197
:101EF000A3010E946E074C019093E6018093E501D7
:101F00006DED70E08091A4019091A5010E946E0793
:101F10005C019093E8018093E7016DED70E053C0A0
:101F200067EF70E08091A0019091A1010E946E077F
:101F30003C019093E4018093E30167EF70E08091AE
:101F4000A2019091A3010E946E074C019093E601BB
:101F50008093E50167EF70E08091A4019091A50165
:101F60000E946E075C019093E8018093E70167EFA0
:101F700070E029C061E171E08091A0019091A10120
:101F80000E946E073C019093E4018093E30161E1BC
:101F900071E08091A2019091A3010E946E074C0113
:101FA0009093E6018093E50161E171E08091A401E5
:101FB0009091A5010E946E075C019093E8018093C7
:101FC000E70161E171E08091A6019091A7010E9473
:101FD0006E076C019093EA018093E901B30180E000
:101FE0000E946C08B40181E00E946C08B50182E097
:101FF0000E946C08B60183E00E946C088091F50194
:1020000081110CC00E9439036093F1017093F201B9
:102010008093F3019093F401C093F5010E9439037A
:102020008090F1019090F201A090F301B090F40142
:10203000DC01CB0188199909AA09BB0985369105EC
:10204000A105B10508F4A6C484E492E00E947704D7
:10205000DD2309F408C20E9439036093F1017093F3
:10206000F2018093F3019093F401D23009F450C04F
:10207000D33009F496C0D13009F07DC185E791E0F5
:102080000E94620A61E080E00E94830AE0910401FC
:102090008E2F90E087309105D0F4FC01EC5CFF4F6F
:1020A0000C94CA1880E791E014C088E691E011C052
:1020B00081E691E00EC08DE591E00BC086E591E0F0
:1020C00008C082E591E005C08DE491E002C085E49E
:1020D00091E00E94620A0E94FC05882309F44FC126
:1020E00090910401282F082E000C330B290F311D6D
:1020F000273031051CF01092040141C137FF04C0A4
:1021000086E0809304013BC1980F9093040137C18E
:102110008FEA91E00E94620A61E080E00E94830AF7
:1021200080910301833099F038F4882369F081307D
:10213000B9F486EA91E016C0853079F058F087301E
:1021400079F483E891E00EC08EE991E00BC085E957
:1021500091E008C081E991E005C089E891E002C002
:102160008BE791E00E94620A0E94FC05882309F433
:1021700006C190910301282F082E000C330B290F64
:10218000311D283031051CF010920301F8C037FFD3
:1021900004C087E080930301F2C0980F909303017D
:1021A000EEC0E09100018E2F90E0FC013197E83005
:1021B000F10508F0BFC0E55CFF4F0C94CA188AE037
:1021C00092E00E94620A61E080E00E94830A85E05A
:1021D00092E0B2C08CEF91E00E94620A61E080E080
:1021E0000E94830A80919D0180FD03C088E291E0F6
:1021F00002C08CE291E00E940E0C0E9494058111B5
:1022000069C40E942C05811165C498C084EF91E0D7
:102210000E94620A61E080E00E94830A80919D0131
:1022200081FD03C08FE291E002C082E391E00E9451
:102230000E0C0E949405811155C40E942C05811139
:1022400051C47CC08BEE91E00E94620A61E080E0A4
:102250000E94830A80919D0182FD03C088E291E083
:1022600002C08CE291E00E940E0C0E949405811144
:1022700043C40E942C0581113FC460C082EE91E0EE
:102280000E94620A61E080E00E94830A80919E01C0
:1022900090E001960E940C0B0E94940590919E0183
:1022A000C82E880FDD08C90ED11C0E942C052AE01B
:1022B0008202C00111248C0D911D80939E013EC0AD
:1022C00088ED91E00E94620A61E080E00E94830A4A
:1022D00080919F0190E001960E940C0B0E94940552
:1022E00090919F01C82E880FDD08C90ED11C0E9455
:1022F0002C052AE08202C00111248C0D911D8093CF
:102300009F011CC08FEC91E00E94620A61E080E0B6
:102310000E94830A86E391E00E940E0C0FC086ECB7
:1023200091E00E94620A61E080E00E94830A80ECF2
:1023300091E002C088EB91E00E94620A0E94FC05D5
:102340008823E9F090910001282F082E000C330B10
:10235000290F311D293031051CF0C09300010FC039
:102360001216130624F088E08093000108C0980F2D
:102370009093000104C081E192E00E94620A809182
:10238000CB0181110CC00E9439036093C701709387
:10239000C8018093C9019093CA01C093CB01809179
:1023A000A2019091A3018D3221E09207E4F00E94F6
:1023B0003903C090C701D090C801E090C901F090E6
:1023C000CA01DC01CB018C199D09AE09BF09C39775
:1023D000A105B10528F08091C6018F3F09F094C393
:1023E0000093C60121C0843D9E4FE4F40E9439034E
:1023F000C090C701D090C801E090C901F090CA0117
:10240000DC01CB018C199D09AE09BF09C397A10559
:10241000B10528F08091C601813009F078C3C093DE
:10242000C60102C01092C6013091C501332309F4E0
:10243000B1C21092C5012091C301832F032E000C5D
:10244000990B820F911D843091051CF0C093C3013C
:10245000A1C2181619061CF01093C3019BC2230FCA
:102460002093C30197C281E0F8120FC00E94390384
:102470006093F1017093F2018093F3019093F40162
:102480008BE391E00E940E0C85C2E09103018E2F38
:1024900090E08830910508F073C2FC01ED5BFF4FBE
:1024A0000C94CA1860E080E00E94830A8091A00129
:1024B0009091A1010E940C0B60E084E00E94830ACD
:1024C0008091A2019091A3010E940C0B61E080E039
:1024D0000E94830A8091A4019091A5010E940C0B97
:1024E00061E084E00E94830A8091A6019091A70197
:1024F00013C160E080E00E94830A83E392E00E94BF
:10250000620A0E94F9077C0190E1E91697E2F90658
:1025100020F483E491E00E940E0CB70180E090E08B
:102520000E948D1720E030E04AE754E40E94EC1648
:1025300041E00E943A0B60E087E00E94830A81E359
:1025400092E00E94620A61E080E00E94830A8DE2CC
:1025500092E00E94620A0E94D1077C01803197427A
:1025600020F483E491E00E940E0CB70180E090E03B
:102570000E948D1720E030E04AE754E40E94EC16F8
:1025800041E00E943A0B61E087E00E94830A8BE2FF
:1025900092E09DC060E080E00E94830A88E292E0C1
:1025A0000E94620A0E94F9077C0180E1E81687E236
:1025B000F80620F483E491E00E940E0CB70180E05D
:1025C00090E00E948D1720E030E04AE754E40E943A
:1025D000EC1642E00E943A0B60E087E00E94830A1A
:1025E00086E292E00E94620A61E080E00E94830A33
:1025F00083E292E00E94620A1093010182E10E944C
:10260000E20268E070E080E090E00E94FF0282E178
:102610000E94E20224E635E0DC010E94D0182FEF90
:1026200033E040E050E00E944916A8EEB3E00E947B
:102630003E16C093010124E531E040E050E00E94E5
:1026400049168091ED019091EE01A091EF01B091BA
:10265000F001BC01CD01620F731F841F951F6093B1
:10266000ED017093EE018093EF019093F0012091C2
:1026700002012F5F209302012C3090F0A201910102
:102680000E9449163093EC012093EB01C0930201A4
:102690001092ED011092EE011092EF011092F001F4
:1026A0006091EB017091EC0180E090E00E948D1749
:1026B00020E030E04AE754E40E94EC1642E00E9439
:1026C0003A0B61E086E00E94830A80E292E00E9479
:1026D000620A56C18091E3019091E4010E940C0BC3
:1026E00060E084E00E94830A8091E5019091E60118
:1026F0000E940C0B61E080E00E94830A8091E70158
:102700009091E8010E940C0B61E084E00E94830A32
:102710008091E9019091EA010E940C0B31C18091F6
:10272000DB0181110CC00E9439036093D7017093C3
:10273000D8018093D9019093DA01C093DB010E9404
:1027400039038090D7019090D801A090D901B09022
:10275000DA01DC01CB0188199909AA09BB09893E74
:102760009340A105B10508F48EC060919901709164
:102770009A0180919B0190919C010E948D1720E00D
:1027800030E04AE754E40E9444186B017C010E9447
:102790003903681979098A099B090E948D179B01E1
:1027A000AC01C701B6010E94EC166093D30170938F
:1027B000D4018093D5019093D60120919D0121FFF2
:1027C0000EC020E030E040E752E40E9444186093DD
:1027D000D3017093D4018093D5019093D601609179
:1027E0009F016623E9F070E06F5F7F4F072E000CBA
:1027F000880B990B0E948F179B01AC016091D3014C
:102800007091D4018091D5019091D6010E94EC166F
:102810006093D3017093D4018093D5019093D60136
:1028200060919E016623E9F070E06F5F7F4F072E95
:10283000000C880B990B0E948F179B01AC016091D3
:10284000D3017091D4018091D5019091D6010E945D
:1028500044186093D3017093D4018093D501909371
:10286000D6011092990110929A0110929B01109238
:102870009C010E9439036093D7017093D801809323
:10288000D9019093DA0180919D0181FD03C085E417
:1028900091E002C089E491E00E940E0C80919D01BC
:1028A00082FF04C08EE491E00E940E0C80919F0193
:1028B000811104C080919E01882321F081E591E07F
:1028C0000E940E0C61E080E00E94830A20919D012D
:1028D0006091D3017091D4018091D5019091D6017E
:1028E00021FF4BC040E04AC087E192E00E94620AAB
:1028F00061E080E00E94830A6091990170919A01E1
:1029000080919B0190919C014AE00E94CB0A38C0C3
:1029100084E591E00E940E0C61E080E00E94830A51
:1029200088EC80937C0080917A00806880937A00A4
:1029300064E170E080E090E00E94FF0280917A0004
:10294000806480937A0080917A0086FDFCCF60914C
:10295000780070917900C093010180E090E00E94BE
:102960008D172EEA37E242EA53E40E947A1626EFE8
:1029700038E24CE95FE30E94EC1642E00E943A0B19
:102980000E9439036093F1017093F2018093F30187
:102990009093F4010E9439034B015C018091B201D4
:1029A000882309F48FC02091AB0130E0F901EF5B7F
:1029B000FD4F8491F901E15AFD4FD491F901E3589B
:1029C000FD4FF490FF2079F081110E943702EF2D26
:1029D000F0E0EE0FFF1FE95CFD4FA591B491EC9183
:1029E000DE2321E009F420E021708091B001909174
:1029F000B101892B09F02C278091B301821759F07E
:102A00002093B3018092B5019092B601A092B701D4
:102A1000B092B80157C08091B5019091B601A091D4
:102A2000B701B091B801B501A401481B590B6A0B5D
:102A30007B0B8091AC019091AD01A091AE01B09162
:102A4000AF0184179507A607B70708F03BC0809130
:102A5000B401821701F12093B4012223C1F08091C7
:102A6000B9019091BA01A091BB01B091BC0101964E
:102A7000A11DB11D8093B9019093BA01A093BB0130
:102A8000B093BC0189EA91E00E94D90104C089EAAF
:102A900091E00E94D0018091B401882399F0809147
:102AA000B5019091B601A091B701B091B801B501FF
:102AB000A401481B590B6A0B7B0B21F089EA91E0BA
:102AC0000E94C50180E090E0892B09F400C90E94B2
:102AD0000000FBC880919D0180FD02C0816007C09D
:102AE0008E7F05C080919D0181FD04C0826080932E
:102AF0009D0124CC8D7FFBCF80919D0182FD02C082
:102B00008460F5CF8B7FF3CF0093C50169CCC09370
:102B1000C50185CC0895EBE3F2E085919491E8E856
:102B2000F1E0918380838BE690E09383828381E060
:102B30008483158216821186108613861286148667
:102B4000EDE3F2E025913491E7E7F1E03183208372
:102B50002CE630E03383228392E094831582168240
:102B600011861086138612861486EFE3F2E0259113
:102B70003491E6E6F1E0318320832DE630E03383C3
:102B8000228394E094831582168211861086138620
:102B900012861486E4E4F2E01382128226E131E028
:102BA0003183208314829FEF958393E196839DE088
:102BB00097839BE090879CE0918782871386148699
:102BC00015861686178641E060E1CF010E94100C41
:102BD000E9EAF1E08EE191E0918380831282138231
:102BE00014821582168282E090E090878783118696
:102BF000128613861486158616861786108A118A01
:102C0000128A138A158A148A178A168A118E108ED0
:102C10000895F999FECF92BD81BDF89A992780B5A4
:102C20000895262FF999FECF1FBA92BD81BD20BD10
:102C30000FB6F894FA9AF99A0FBE01960895052EE8
:102C400097FB1EF400940E94361657FD07D00E9491
:102C5000491607FC03D04EF40C9436165095409557
:102C6000309521953F4F4F4F5F4F08959095809538
:102C7000709561957F4F8F4F9F4F08950E946B16FF
:102C8000A59F900DB49F900DA49F800D911D1124C0
:102C90000895A1E21A2EAA1BBB1BFD010DC0AA1F9D
:102CA000BB1FEE1FFF1FA217B307E407F50720F0B5
:102CB000A21BB30BE40BF50B661F771F881F991F30
:102CC0001A9469F760957095809590959B01AC0179
:102CD000BD01CF010895A29FB001B39FC001A39F82
:102CE000700D811D1124911DB29F700D811D112445
:102CF000911D08955058BB27AA270E9492160C9444
:102D000005180E94F71738F00E94FE1720F039F4DA
:102D10009F3F19F426F40C94F4170EF4E095E7FBAA
:102D20000C94EE17E92F0E94161858F3BA17620791
:102D300073078407950720F079F4A6F50C943818EA
:102D40000EF4E0950B2EBA2FA02D0B01B9019001C6
:102D50000C01CA01A0011124FF27591B99F0593F0A
:102D600050F4503E68F11A16F040A22F232F342F52
:102D70004427585FF3CF469537952795A795F040A0
:102D80005395C9F77EF41F16BA0B620B730B840BB5
:102D9000BAF09150A1F0FF0FBB1F661F771F881F6D
:102DA000C2F70EC0BA0F621F731F841F48F48795C5
:102DB00077956795B795F7959E3F08F0B0CF9395B7
:102DC000880F08F09927EE0F9795879508950E9430
:102DD000CA1708F481E008950E9400170C940518A2
:102DE0000E94FE1758F00E94F71740F029F45F3F49
:102DF00029F00C94EE1751110C9439180C94F41717
:102E00000E94161868F39923B1F3552391F3951B8B
:102E1000550BBB27AA2762177307840738F09F5FFB
:102E20005F4F220F331F441FAA1FA9F335D00E2E68
:102E30003AF0E0E832D091505040E695001CCAF7D5
:102E40002BD0FE2F29D0660F771F881FBB1F261798
:102E500037074807AB07B0E809F0BB0B802DBF016F
:102E6000FF2793585F4F3AF09E3F510578F00C943E
:102E7000EE170C9439185F3FE4F3983ED4F386952F
:102E800077956795B795F7959F5FC9F7880F911D5F
:102E90009695879597F90895E1E0660F771F881F4B
:102EA000BB1F621773078407BA0720F0621B730BFE
:102EB000840BBA0BEE1F88F7E09508950E941E1848
:102EC00088F09F5798F0B92F9927B751B0F0E1F0EB
:102ED000660F771F881F991F1AF0BA95C9F714C09B
:102EE000B13091F00E943818B1E008950C94381870
:102EF000672F782F8827B85F39F0B93FCCF38695D4
:102F000077956795B395D9F73EF490958095709530
:102F100061957F4F8F4F9F4F0895E89409C097FBAD
:102F20003EF490958095709561957F4F8F4F9F4FA0
:102F30009923A9F0F92F96E9BB279395F6958795E4
:102F400077956795B795F111F8CFFAF4BB0F11F4A7
:102F500060FF1BC06F5F7F4F8F4F9F4F16C088234E
:102F600011F096E911C0772321F09EE8872F762F84
:102F700005C0662371F096E8862F70E060E02AF0C5
:102F80009A95660F771F881FDAF7880F96958795B1
:102F900097F90895990F0008550FAA0BE0E8FEEF86
:102FA00016161706E807F907C0F012161306E4070D
:102FB000F50798F0621B730B840B950B39F40A2606
:102FC00061F0232B242B252B21F408950A2609F4E4
:102FD000A140A6958FEF811D811D089597F99F67E8
:102FE00080E870E060E008959FEF80EC0895002491
:102FF0000A941616170618060906089500240A945E
:1030000012161306140605060895092E0394000CE3
:1030100011F4882352F0BB0F40F4BF2B11F460FF72
:1030200004C06F5F7F4F8F4F9F4F089557FD90589B
:10303000440F551F59F05F3F71F04795880F97FB7C
:10304000991F61F09F3F79F0879508951216130636
:103050001406551FF2CF4695F1DF08C01616170665
:103060001806991FF1CF869571056105089408959A
:10307000E894BB2766277727CB0197F908950E942C
:10308000CA1708F48FEF08950E9457180C9405187A
:103090000E94F71738F00E94FE1720F0952311F0D8
:1030A0000C94EE170C94F41711240C9439180E9408
:1030B000161870F3959FC1F3950F50E0551F629F4E
:1030C000F001729FBB27F00DB11D639FAA27F00D81
:1030D000B11DAA1F649F6627B00DA11D661F829FA8
:1030E0002227B00DA11D621F739FB00DA11D621F8D
:1030F000839FA00D611D221F749F3327A00D611DAA
:10310000231F849F600D211D822F762F6A2F11248B
:103110009F5750409AF0F1F088234AF0EE0FFF1FBE
:10312000BB1F661F771F881F91505040A9F79E3F15
:10313000510580F00C94EE170C9439185F3FE4F3BE
:10314000983ED4F3869577956795B795F795E7956B
:103150009F5FC1F7FE2B880F911D9695879597F974
:1031600008950E94CA17880B990B089597FB072EA4
:1031700016F4009407D077FD09D00E94D71807FCF9
:1031800005D03EF4909581959F4F08957095619577
:103190007F4F0895EE0FFF1F0590F491E02D0994E5
:1031A0000E946B16B7FF0895821B930B0895AA1B0C
:1031B000BB1B51E107C0AA1FBB1FA617B70710F022
:1031C000A61BB70B881F991F5A95A9F78095909554
:1031D000BC01CD010895CF93DF938230910510F4A7
:1031E00082E090E0E0911303F091140320E030E0DE
:1031F000C0E0D0E0309711F1408151814817590764
:10320000C0F04817590761F482819381209719F023
:103210009B838A832BC0909314038093130326C04F
:103220002115310519F04217530718F49A01BE0110
:10323000DF01EF010280F381E02DDCCF21153105A4
:1032400009F1281B390B2430310590F412968D9129
:103250009C9113976115710521F0FB019383828383
:1032600004C09093140380931303FD01329644C06D
:10327000FD01E20FF31F81939193225031092D93A9
:103280003C933AC02091110330911203232B41F457
:10329000209108013091090130931203209311030A
:1032A00020910601309107012115310541F42DB718
:1032B0003EB740910A0150910B01241B350BE09160
:1032C0001103F0911203E217F307A0F42E1B3F0B3A
:1032D0002817390778F0AC014E5F5F4F2417350788
:1032E00048F04E0F5F1F50931203409311038193D8
:1032F000919302C0E0E0F0E0CF01DF91CF9108951B
:103300000F931F93CF93DF93009709F48CC0FC01B8
:103310003297138212820091130310911403011546
:10332000110581F420813181820F931F20911103B7
:10333000309112032817390779F5F0931203E093BF
:10334000110371C0D80140E050E0AE17BF0750F440
:1033500012962D913C911397AD012115310509F17C
:10336000D901F3CF9D01DA0133832283608171811A
:10337000860F971F8217930769F4EC012881398122
:10338000260F371F2E5F3F4F318320838A819B8119
:1033900093838283452B29F4F0931403E093130362
:1033A00042C01396FC93EE931297ED014991599107
:1033B0009E01240F351FE217F30771F4808191817C
:1033C000840F951F029611969C938E938281938110
:1033D00013969C938E931297E0E0F0E0D80112963A
:1033E0008D919C911397009719F0F8018C01F6CFFD
:1033F0008D919C9198012E5F3F4F820F931F2091DA
:103400001103309112032817390769F4309729F412
:10341000109214031092130302C0138212821093AD
:10342000120300931103DF91CF911F910F91089523
:1034300081E090E0F8940C941D1A11E0CAE4D1E008
:1034400004C0FE010E94CA182196CB34D107C9F7E7
:04345000F894FFCF1E
:103454000101010201FF00001503800088017701CA
:103464006601000000006E04750100000000E20126
:103474003502D901D001C5014F4646004F4E0048E0
:103484007A0052504D00302E316100465245455A63
:103494004544002000487A3A0052504D3A002044F6
:1034A4000020780054656D702E006E616E00696EA8
:0634B40066006F76660061
:00000001FF
